{
  "contractName": "CustomerRole",
  "abi": [
    {
      "inputs": [],
      "payable": false,
      "stateMutability": "nonpayable",
      "type": "constructor",
      "signature": "constructor"
    },
    {
      "anonymous": false,
      "inputs": [
        {
          "indexed": true,
          "name": "account",
          "type": "address"
        }
      ],
      "name": "CustomerAdded",
      "type": "event",
      "signature": "0xcd118a02bd36f224f6f1b93812f78d2bbc2c2dc1bc0f60c176e3b4fe09f1483f"
    },
    {
      "anonymous": false,
      "inputs": [
        {
          "indexed": true,
          "name": "account",
          "type": "address"
        }
      ],
      "name": "CustomerRemoved",
      "type": "event",
      "signature": "0xb4c88a9c5cd906354abdd1cc29e4f94c6c4de90754fb80ce51e6a33417bc81b6"
    },
    {
      "constant": true,
      "inputs": [
        {
          "name": "account",
          "type": "address"
        }
      ],
      "name": "isCustomer",
      "outputs": [
        {
          "name": "",
          "type": "bool"
        }
      ],
      "payable": false,
      "stateMutability": "view",
      "type": "function",
      "signature": "0x28fd5e83"
    },
    {
      "constant": false,
      "inputs": [
        {
          "name": "account",
          "type": "address"
        }
      ],
      "name": "addCustomer",
      "outputs": [],
      "payable": false,
      "stateMutability": "nonpayable",
      "type": "function",
      "signature": "0xad973d74"
    },
    {
      "constant": false,
      "inputs": [],
      "name": "renounceCustomer",
      "outputs": [],
      "payable": false,
      "stateMutability": "nonpayable",
      "type": "function",
      "signature": "0xac98e6db"
    }
  ],
  "bytecode": "0x608060405234801561001057600080fd5b506100293361002e640100000000026401000000009004565b6101e8565b61004f8160006100956401000000000261036c179091906401000000009004565b8073ffffffffffffffffffffffffffffffffffffffff167fcd118a02bd36f224f6f1b93812f78d2bbc2c2dc1bc0f60c176e3b4fe09f1483f60405160405180910390a250565b600073ffffffffffffffffffffffffffffffffffffffff168173ffffffffffffffffffffffffffffffffffffffff16141515156100d157600080fd5b6100ea8282610154640100000000026401000000009004565b1515156100f657600080fd5b60018260000160008373ffffffffffffffffffffffffffffffffffffffff1673ffffffffffffffffffffffffffffffffffffffff16815260200190815260200160002060006101000a81548160ff0219169083151502179055505050565b60008073ffffffffffffffffffffffffffffffffffffffff168273ffffffffffffffffffffffffffffffffffffffff161415151561019157600080fd5b8260000160008373ffffffffffffffffffffffffffffffffffffffff1673ffffffffffffffffffffffffffffffffffffffff16815260200190815260200160002060009054906101000a900460ff16905092915050565b610448806101f76000396000f3fe608060405260043610610057576000357c0100000000000000000000000000000000000000000000000000000000900463ffffffff16806328fd5e831461005c578063ac98e6db146100c5578063ad973d74146100dc575b600080fd5b34801561006857600080fd5b506100ab6004803603602081101561007f57600080fd5b81019080803573ffffffffffffffffffffffffffffffffffffffff16906020019092919050505061012d565b604051808215151515815260200191505060405180910390f35b3480156100d157600080fd5b506100da61014a565b005b3480156100e857600080fd5b5061012b600480360360208110156100ff57600080fd5b81019080803573ffffffffffffffffffffffffffffffffffffffff169060200190929190505050610155565b005b600061014382600061017590919063ffffffff16565b9050919050565b61015333610209565b565b61015e3361012d565b151561016957600080fd5b61017281610263565b50565b60008073ffffffffffffffffffffffffffffffffffffffff168273ffffffffffffffffffffffffffffffffffffffff16141515156101b257600080fd5b8260000160008373ffffffffffffffffffffffffffffffffffffffff1673ffffffffffffffffffffffffffffffffffffffff16815260200190815260200160002060009054906101000a900460ff16905092915050565b61021d8160006102bd90919063ffffffff16565b8073ffffffffffffffffffffffffffffffffffffffff167fb4c88a9c5cd906354abdd1cc29e4f94c6c4de90754fb80ce51e6a33417bc81b660405160405180910390a250565b61027781600061036c90919063ffffffff16565b8073ffffffffffffffffffffffffffffffffffffffff167fcd118a02bd36f224f6f1b93812f78d2bbc2c2dc1bc0f60c176e3b4fe09f1483f60405160405180910390a250565b600073ffffffffffffffffffffffffffffffffffffffff168173ffffffffffffffffffffffffffffffffffffffff16141515156102f957600080fd5b6103038282610175565b151561030e57600080fd5b60008260000160008373ffffffffffffffffffffffffffffffffffffffff1673ffffffffffffffffffffffffffffffffffffffff16815260200190815260200160002060006101000a81548160ff0219169083151502179055505050565b600073ffffffffffffffffffffffffffffffffffffffff168173ffffffffffffffffffffffffffffffffffffffff16141515156103a857600080fd5b6103b28282610175565b1515156103be57600080fd5b60018260000160008373ffffffffffffffffffffffffffffffffffffffff1673ffffffffffffffffffffffffffffffffffffffff16815260200190815260200160002060006101000a81548160ff021916908315150217905550505056fea165627a7a72305820a16f970b294f2b145f45fac1e346c4a99153189aa94d458485fbc346d5e01e450029",
  "source": "pragma solidity ^0.5.0;\r\n\r\n// Import the library 'Roles'\r\nimport \"./Roles.sol\";\r\n\r\ncontract CustomerRole{\r\n    using Roles for Roles.Role;\r\n    // Define 2 events, one for Adding, and other for Removing\r\n    event CustomerAdded(address indexed account);\r\n    event CustomerRemoved(address indexed account);\r\n\r\n    // Define a struct 'cutomers' by inheriting from 'Roles' library, struct Role\r\n    Roles.Role private customers;\r\n\r\n    // In the constructor make the address that deploys this contract the 1st customer\r\n    constructor() public{\r\n        _addCustomer(msg.sender);\r\n    }\r\n    // Define a modifier that checks to see if msg.sender has the appropriate role\r\n    modifier onlyCustomer(){\r\n        require(isCustomer(msg.sender));\r\n        _;\r\n    }\r\n    // Define a function 'isCustomer' to check this role\r\n    function isCustomer(address account) public view returns (bool){\r\n        return customers.has(account);\r\n    }\r\n    // Define a function 'addCustomer' that adds this role\r\n    function addCustomer(address account) public onlyCustomer{\r\n        _addCustomer(account);\r\n    }\r\n\r\n    // Define a function 'renounceCustomer' to renounce this role\r\n    function renounceCustomer() public {\r\n        _removeCustomer(msg.sender);  \r\n    } \r\n\r\n    // Define an internal function '_addCustomer' to add this role, called by 'addCustomer'\r\n    function _addCustomer(address account) internal{\r\n        customers.add(account);\r\n        emit CustomerAdded(account); \r\n    }\r\n\r\n    // Define an internal function '_removeCustomer' to remove this role, called by 'removeCustomer'\r\n    function _removeCustomer(address account) internal{\r\n        customers.remove(account);\r\n        emit CustomerRemoved(account);\r\n    }\r\n\r\n\r\n}",
  "sourcePath": "C:/Users/Hadeel/Desktop/Architect a Blockchain Supply Chain Solution/Part B/Project-6b/Project-6b/project-6/contracts/photographaccesscontrol/CustomerRole.sol",
  "compiler": {
    "name": "solc",
    "version": "0.5.0+commit.1d4f565a.Emscripten.clang"
  },
  "schemaVersion": "3.0.1",
  "updatedAt": "2019-03-14T21:04:17.255Z",
  "devdoc": {
    "methods": {}
  },
  "userdoc": {
    "methods": {}
  }
}