{
  "contractName": "EditorRole",
  "abi": [
    {
      "inputs": [],
      "payable": false,
      "stateMutability": "nonpayable",
      "type": "constructor",
      "signature": "constructor"
    },
    {
      "anonymous": false,
      "inputs": [
        {
          "indexed": true,
          "name": "account",
          "type": "address"
        }
      ],
      "name": "EditorAdded",
      "type": "event",
      "signature": "0x2973ec437ba0a6207102c44c409e03815ee1cc4624578ad40d3e4c50f9785591"
    },
    {
      "anonymous": false,
      "inputs": [
        {
          "indexed": true,
          "name": "account",
          "type": "address"
        }
      ],
      "name": "EditorRemoved",
      "type": "event",
      "signature": "0x9ebabfcf7586bd9e26cef64918d755359eb8b878650b23b77105b0963082e348"
    },
    {
      "constant": true,
      "inputs": [
        {
          "name": "account",
          "type": "address"
        }
      ],
      "name": "isEditor",
      "outputs": [
        {
          "name": "",
          "type": "bool"
        }
      ],
      "payable": false,
      "stateMutability": "view",
      "type": "function",
      "signature": "0xa0748154"
    },
    {
      "constant": false,
      "inputs": [
        {
          "name": "account",
          "type": "address"
        }
      ],
      "name": "addEditor",
      "outputs": [],
      "payable": false,
      "stateMutability": "nonpayable",
      "type": "function",
      "signature": "0xe5975bdc"
    },
    {
      "constant": false,
      "inputs": [],
      "name": "renounceEditor",
      "outputs": [],
      "payable": false,
      "stateMutability": "nonpayable",
      "type": "function",
      "signature": "0xa01b86d0"
    }
  ],
  "bytecode": "0x608060405234801561001057600080fd5b506100293361002e640100000000026401000000009004565b6101e8565b61004f8160006100956401000000000261036c179091906401000000009004565b8073ffffffffffffffffffffffffffffffffffffffff167f2973ec437ba0a6207102c44c409e03815ee1cc4624578ad40d3e4c50f978559160405160405180910390a250565b600073ffffffffffffffffffffffffffffffffffffffff168173ffffffffffffffffffffffffffffffffffffffff16141515156100d157600080fd5b6100ea8282610154640100000000026401000000009004565b1515156100f657600080fd5b60018260000160008373ffffffffffffffffffffffffffffffffffffffff1673ffffffffffffffffffffffffffffffffffffffff16815260200190815260200160002060006101000a81548160ff0219169083151502179055505050565b60008073ffffffffffffffffffffffffffffffffffffffff168273ffffffffffffffffffffffffffffffffffffffff161415151561019157600080fd5b8260000160008373ffffffffffffffffffffffffffffffffffffffff1673ffffffffffffffffffffffffffffffffffffffff16815260200190815260200160002060009054906101000a900460ff16905092915050565b610448806101f76000396000f3fe608060405260043610610057576000357c0100000000000000000000000000000000000000000000000000000000900463ffffffff168063a01b86d01461005c578063a074815414610073578063e5975bdc146100dc575b600080fd5b34801561006857600080fd5b5061007161012d565b005b34801561007f57600080fd5b506100c26004803603602081101561009657600080fd5b81019080803573ffffffffffffffffffffffffffffffffffffffff169060200190929190505050610138565b604051808215151515815260200191505060405180910390f35b3480156100e857600080fd5b5061012b600480360360208110156100ff57600080fd5b81019080803573ffffffffffffffffffffffffffffffffffffffff169060200190929190505050610155565b005b61013633610175565b565b600061014e8260006101cf90919063ffffffff16565b9050919050565b61015e33610138565b151561016957600080fd5b61017281610263565b50565b6101898160006102bd90919063ffffffff16565b8073ffffffffffffffffffffffffffffffffffffffff167f9ebabfcf7586bd9e26cef64918d755359eb8b878650b23b77105b0963082e34860405160405180910390a250565b60008073ffffffffffffffffffffffffffffffffffffffff168273ffffffffffffffffffffffffffffffffffffffff161415151561020c57600080fd5b8260000160008373ffffffffffffffffffffffffffffffffffffffff1673ffffffffffffffffffffffffffffffffffffffff16815260200190815260200160002060009054906101000a900460ff16905092915050565b61027781600061036c90919063ffffffff16565b8073ffffffffffffffffffffffffffffffffffffffff167f2973ec437ba0a6207102c44c409e03815ee1cc4624578ad40d3e4c50f978559160405160405180910390a250565b600073ffffffffffffffffffffffffffffffffffffffff168173ffffffffffffffffffffffffffffffffffffffff16141515156102f957600080fd5b61030382826101cf565b151561030e57600080fd5b60008260000160008373ffffffffffffffffffffffffffffffffffffffff1673ffffffffffffffffffffffffffffffffffffffff16815260200190815260200160002060006101000a81548160ff0219169083151502179055505050565b600073ffffffffffffffffffffffffffffffffffffffff168173ffffffffffffffffffffffffffffffffffffffff16141515156103a857600080fd5b6103b282826101cf565b1515156103be57600080fd5b60018260000160008373ffffffffffffffffffffffffffffffffffffffff1673ffffffffffffffffffffffffffffffffffffffff16815260200190815260200160002060006101000a81548160ff021916908315150217905550505056fea165627a7a7230582030492c78429bc3447255ca731c285b3fe298c607b326c76a3090fef6065408330029",
  "source": "pragma solidity ^0.5.0;\r\n\r\n// Import the library 'Roles'\r\nimport \"./Roles.sol\";\r\n\r\ncontract EditorRole{\r\n    using Roles for Roles.Role;\r\n\r\n    // Define 2 events, one for Adding, and other for Removing\r\n    event EditorAdded(address indexed account);\r\n    event EditorRemoved(address indexed account);\r\n\r\n    // Define a struct 'editors' by inheriting from 'Roles' library, struct Role\r\n    Roles.Role private editors;\r\n\r\n      // In the constructor make the address that deploys this contract the 1st editor\r\n    constructor() public {\r\n        _addEditor(msg.sender);\r\n    }\r\n\r\n    // Define a modifier that checks to see if msg.sender has the appropriate role\r\n    modifier onlyEditor() {\r\n        require(isEditor(msg.sender));\r\n        _;\r\n    }\r\n\r\n      // Define a function 'isEditor' to check this role\r\n    function isEditor(address account) public view returns (bool) {\r\n        return editors.has(account);\r\n    }\r\n\r\n    // Define a function 'addEditor' that adds this role\r\n    function addEditor(address account) public onlyEditor {\r\n        _addEditor(account);\r\n    }\r\n\r\n\r\n    // Define a function 'renounceEditor' to renounce this role\r\n    function renounceEditor() public {\r\n        _removeEditor(msg.sender);\r\n    } \r\n\r\n    // Define an internal function '_addEditor' to add this role, called by 'addEditor'\r\n    function _addEditor(address account) internal {\r\n        editors.add(account);\r\n        emit EditorAdded(account);\r\n    }\r\n\r\n      // Define an internal function '_removeEditor' to remove this role, called by 'removeEditor'\r\n    function _removeEditor(address account) internal {\r\n        editors.remove(account);\r\n        emit EditorRemoved(account);\r\n    }\r\n}",
  "sourcePath": "C:/Users/Hadeel/Desktop/Architect a Blockchain Supply Chain Solution/Part B/Project-6b/Project-6b/project-6/contracts/photographaccesscontrol/EditorRole.sol",
  "compiler": {
    "name": "solc",
    "version": "0.5.0+commit.1d4f565a.Emscripten.clang"
  },
  "schemaVersion": "3.0.1",
  "updatedAt": "2019-03-14T21:04:17.258Z",
  "devdoc": {
    "methods": {}
  },
  "userdoc": {
    "methods": {}
  }
}