{
  "contractName": "PhotographerRole",
  "abi": [
    {
      "inputs": [],
      "payable": false,
      "stateMutability": "nonpayable",
      "type": "constructor",
      "signature": "constructor"
    },
    {
      "anonymous": false,
      "inputs": [
        {
          "indexed": true,
          "name": "account",
          "type": "address"
        }
      ],
      "name": "PhotographerAdded",
      "type": "event",
      "signature": "0xb54ccaca90f0b33f34c1b6e484158bc06d58c9efb0ba299abddeaae619691b14"
    },
    {
      "anonymous": false,
      "inputs": [
        {
          "indexed": true,
          "name": "account",
          "type": "address"
        }
      ],
      "name": "PhotographerRemoved",
      "type": "event",
      "signature": "0xc9a8101ce92004f8b5ed467cac2f18c919eb74970b8abd8fc72548b77e9081c1"
    },
    {
      "constant": true,
      "inputs": [
        {
          "name": "account",
          "type": "address"
        }
      ],
      "name": "isPhotographer",
      "outputs": [
        {
          "name": "",
          "type": "bool"
        }
      ],
      "payable": false,
      "stateMutability": "view",
      "type": "function",
      "signature": "0x7ea7ec6e"
    },
    {
      "constant": false,
      "inputs": [
        {
          "name": "account",
          "type": "address"
        }
      ],
      "name": "addPhotographer",
      "outputs": [],
      "payable": false,
      "stateMutability": "nonpayable",
      "type": "function",
      "signature": "0xa0d7083d"
    },
    {
      "constant": false,
      "inputs": [],
      "name": "renouncePhotographer",
      "outputs": [],
      "payable": false,
      "stateMutability": "nonpayable",
      "type": "function",
      "signature": "0x44a3af48"
    }
  ],
  "bytecode": "0x608060405234801561001057600080fd5b506100293361002e640100000000026401000000009004565b6101e8565b61004f8160006100956401000000000261036c179091906401000000009004565b8073ffffffffffffffffffffffffffffffffffffffff167fb54ccaca90f0b33f34c1b6e484158bc06d58c9efb0ba299abddeaae619691b1460405160405180910390a250565b600073ffffffffffffffffffffffffffffffffffffffff168173ffffffffffffffffffffffffffffffffffffffff16141515156100d157600080fd5b6100ea8282610154640100000000026401000000009004565b1515156100f657600080fd5b60018260000160008373ffffffffffffffffffffffffffffffffffffffff1673ffffffffffffffffffffffffffffffffffffffff16815260200190815260200160002060006101000a81548160ff0219169083151502179055505050565b60008073ffffffffffffffffffffffffffffffffffffffff168273ffffffffffffffffffffffffffffffffffffffff161415151561019157600080fd5b8260000160008373ffffffffffffffffffffffffffffffffffffffff1673ffffffffffffffffffffffffffffffffffffffff16815260200190815260200160002060009054906101000a900460ff16905092915050565b610448806101f76000396000f3fe608060405260043610610057576000357c0100000000000000000000000000000000000000000000000000000000900463ffffffff16806344a3af481461005c5780637ea7ec6e14610073578063a0d7083d146100dc575b600080fd5b34801561006857600080fd5b5061007161012d565b005b34801561007f57600080fd5b506100c26004803603602081101561009657600080fd5b81019080803573ffffffffffffffffffffffffffffffffffffffff169060200190929190505050610138565b604051808215151515815260200191505060405180910390f35b3480156100e857600080fd5b5061012b600480360360208110156100ff57600080fd5b81019080803573ffffffffffffffffffffffffffffffffffffffff169060200190929190505050610155565b005b61013633610175565b565b600061014e8260006101cf90919063ffffffff16565b9050919050565b61015e33610138565b151561016957600080fd5b61017281610263565b50565b6101898160006102bd90919063ffffffff16565b8073ffffffffffffffffffffffffffffffffffffffff167fc9a8101ce92004f8b5ed467cac2f18c919eb74970b8abd8fc72548b77e9081c160405160405180910390a250565b60008073ffffffffffffffffffffffffffffffffffffffff168273ffffffffffffffffffffffffffffffffffffffff161415151561020c57600080fd5b8260000160008373ffffffffffffffffffffffffffffffffffffffff1673ffffffffffffffffffffffffffffffffffffffff16815260200190815260200160002060009054906101000a900460ff16905092915050565b61027781600061036c90919063ffffffff16565b8073ffffffffffffffffffffffffffffffffffffffff167fb54ccaca90f0b33f34c1b6e484158bc06d58c9efb0ba299abddeaae619691b1460405160405180910390a250565b600073ffffffffffffffffffffffffffffffffffffffff168173ffffffffffffffffffffffffffffffffffffffff16141515156102f957600080fd5b61030382826101cf565b151561030e57600080fd5b60008260000160008373ffffffffffffffffffffffffffffffffffffffff1673ffffffffffffffffffffffffffffffffffffffff16815260200190815260200160002060006101000a81548160ff0219169083151502179055505050565b600073ffffffffffffffffffffffffffffffffffffffff168173ffffffffffffffffffffffffffffffffffffffff16141515156103a857600080fd5b6103b282826101cf565b1515156103be57600080fd5b60018260000160008373ffffffffffffffffffffffffffffffffffffffff1673ffffffffffffffffffffffffffffffffffffffff16815260200190815260200160002060006101000a81548160ff021916908315150217905550505056fea165627a7a72305820524f2d269d1754c2f2f3a58af15bc062c0e229f1dcb816f98c9a8b524eac21860029",
  "source": "pragma solidity ^0.5.0;\r\n\r\n// Import the library 'Roles'\r\nimport \"./Roles.sol\";\r\n\r\ncontract PhotographerRole{\r\n    using Roles for Roles.Role;\r\n\r\n    // Define 2 events, one for Adding, and other for Removing\r\n    event PhotographerAdded(address indexed account);\r\n    event PhotographerRemoved(address indexed account);\r\n\r\n    // Define a struct 'photographer' by inheriting from 'Roles' library, struct Role\r\n    Roles.Role private photographers;\r\n\r\n      // In the constructor make the address that deploys this contract the 1st photographer\r\n    constructor() public {\r\n        _addPhotographer(msg.sender);\r\n    }\r\n\r\n    // Define a modifier that checks to see if msg.sender has the appropriate role\r\n    modifier onlyPhotographer() {\r\n        require(isPhotographer(msg.sender));\r\n        _;\r\n    }\r\n\r\n      // Define a function 'isPhotographer' to check this role\r\n    function isPhotographer(address account) public view returns (bool) {\r\n        return photographers.has(account);\r\n    }\r\n\r\n    // Define a function 'addPhotographer' that adds this role\r\n    function addPhotographer(address account) public onlyPhotographer {\r\n        _addPhotographer(account);\r\n    }\r\n\r\n\r\n    // Define a function 'renouncePhotographer' to renounce this role\r\n    function renouncePhotographer() public {\r\n        _removePhotographer(msg.sender);\r\n    } \r\n\r\n    // Define an internal function '_addPhotographe' to add this role, called by 'addPhotographer'\r\n    function _addPhotographer(address account) internal {\r\n        photographers.add(account);\r\n        emit PhotographerAdded(account);\r\n    }\r\n\r\n      // Define an internal function '_removePhotographer' to remove this role, called by 'removePhotographer'\r\n    function _removePhotographer(address account) internal {\r\n        photographers.remove(account);\r\n        emit PhotographerRemoved(account);\r\n    }\r\n}",
  "sourcePath": "C:/Users/Hadeel/Desktop/Architect a Blockchain Supply Chain Solution/Part B/Project-6b/Project-6b/project-6/contracts/photographaccesscontrol/PhotographerRole.sol",
  "compiler": {
    "name": "solc",
    "version": "0.5.0+commit.1d4f565a.Emscripten.clang"
  },
  "schemaVersion": "3.0.1",
  "updatedAt": "2019-03-14T21:04:17.265Z",
  "devdoc": {
    "methods": {}
  },
  "userdoc": {
    "methods": {}
  }
}