{
  "contractName": "SupplyChain",
  "abi": [
    {
      "inputs": [],
      "payable": true,
      "stateMutability": "payable",
      "type": "constructor",
      "signature": "constructor"
    },
    {
      "anonymous": false,
      "inputs": [
        {
          "indexed": false,
          "name": "upc",
          "type": "uint256"
        }
      ],
      "name": "Taken",
      "type": "event",
      "signature": "0x2232bfb928a91ae09ca32a5378b10764ad8bcae19b82480a1f934d553117aca8"
    },
    {
      "anonymous": false,
      "inputs": [
        {
          "indexed": false,
          "name": "upc",
          "type": "uint256"
        }
      ],
      "name": "Proccessed",
      "type": "event",
      "signature": "0x81b098879d8f20470d14a7342a3cfd5c340ba750df78cb8f666c16ea0c002e59"
    },
    {
      "anonymous": false,
      "inputs": [
        {
          "indexed": false,
          "name": "upc",
          "type": "uint256"
        }
      ],
      "name": "ForSale",
      "type": "event",
      "signature": "0xa96ae0fc3224ebd79eebfe54bd130cc9cb94416cddd1f2386115e00b72532468"
    },
    {
      "anonymous": false,
      "inputs": [
        {
          "indexed": false,
          "name": "upc",
          "type": "uint256"
        }
      ],
      "name": "Sold",
      "type": "event",
      "signature": "0x92f64ca637d023f354075a4be751b169c1a8a9ccb6d33cdd0cb3520543995727"
    },
    {
      "anonymous": false,
      "inputs": [
        {
          "indexed": false,
          "name": "upc",
          "type": "uint256"
        }
      ],
      "name": "Sent",
      "type": "event",
      "signature": "0xff9eb9d26c4f039c77fb69f72cdcd62f2942afe4d95c7b00919c9b6a6bf003f1"
    },
    {
      "anonymous": false,
      "inputs": [
        {
          "indexed": false,
          "name": "upc",
          "type": "uint256"
        }
      ],
      "name": "Received",
      "type": "event",
      "signature": "0xa8142743f8f70a4c26f3691cf4ed59718381fb2f18070ec52be1f1022d855557"
    },
    {
      "anonymous": false,
      "inputs": [
        {
          "indexed": false,
          "name": "upc",
          "type": "uint256"
        }
      ],
      "name": "Purchased",
      "type": "event",
      "signature": "0x653d56639fee6b566a5c804764e9689de38645f0b733df89a36a1b7b42173dd8"
    },
    {
      "constant": false,
      "inputs": [],
      "name": "kill",
      "outputs": [],
      "payable": false,
      "stateMutability": "nonpayable",
      "type": "function",
      "signature": "0x41c0e1b5"
    },
    {
      "constant": false,
      "inputs": [
        {
          "name": "_upc",
          "type": "uint256"
        },
        {
          "name": "_originPhotographerID",
          "type": "address"
        },
        {
          "name": "_originPhotographerName",
          "type": "string"
        },
        {
          "name": "_photoNotes",
          "type": "string"
        }
      ],
      "name": "takePhoto",
      "outputs": [],
      "payable": false,
      "stateMutability": "nonpayable",
      "type": "function",
      "signature": "0x3ca46c34"
    },
    {
      "constant": false,
      "inputs": [
        {
          "name": "_upc",
          "type": "uint256"
        }
      ],
      "name": "editPhoto",
      "outputs": [],
      "payable": false,
      "stateMutability": "nonpayable",
      "type": "function",
      "signature": "0xbc50afc8"
    },
    {
      "constant": false,
      "inputs": [
        {
          "name": "_upc",
          "type": "uint256"
        },
        {
          "name": "_price",
          "type": "uint256"
        }
      ],
      "name": "addPhoto",
      "outputs": [],
      "payable": false,
      "stateMutability": "nonpayable",
      "type": "function",
      "signature": "0xc2565c6c"
    },
    {
      "constant": false,
      "inputs": [
        {
          "name": "_upc",
          "type": "uint256"
        }
      ],
      "name": "buyPhoto",
      "outputs": [],
      "payable": true,
      "stateMutability": "payable",
      "type": "function",
      "signature": "0xb2bf5826"
    },
    {
      "constant": false,
      "inputs": [
        {
          "name": "_upc",
          "type": "uint256"
        }
      ],
      "name": "sendPhoto",
      "outputs": [],
      "payable": false,
      "stateMutability": "nonpayable",
      "type": "function",
      "signature": "0x0b72e6a7"
    },
    {
      "constant": false,
      "inputs": [
        {
          "name": "_upc",
          "type": "uint256"
        }
      ],
      "name": "receivePhoto",
      "outputs": [],
      "payable": false,
      "stateMutability": "nonpayable",
      "type": "function",
      "signature": "0xaab54d68"
    },
    {
      "constant": false,
      "inputs": [
        {
          "name": "_upc",
          "type": "uint256"
        }
      ],
      "name": "purchasePhoto",
      "outputs": [],
      "payable": false,
      "stateMutability": "nonpayable",
      "type": "function",
      "signature": "0xec083ce7"
    },
    {
      "constant": true,
      "inputs": [
        {
          "name": "_upc",
          "type": "uint256"
        }
      ],
      "name": "fetchPhotoBufferOne",
      "outputs": [
        {
          "name": "photoUPC",
          "type": "uint256"
        },
        {
          "name": "ownerID",
          "type": "address"
        },
        {
          "name": "originPhotographerID",
          "type": "address"
        },
        {
          "name": "originPhotographerName",
          "type": "string"
        }
      ],
      "payable": false,
      "stateMutability": "view",
      "type": "function",
      "signature": "0x562fd371"
    },
    {
      "constant": true,
      "inputs": [
        {
          "name": "_upc",
          "type": "uint256"
        }
      ],
      "name": "fetchPhotoBufferTwo",
      "outputs": [
        {
          "name": "photoUPC",
          "type": "uint256"
        },
        {
          "name": "photoNotes",
          "type": "string"
        },
        {
          "name": "photoPrice",
          "type": "uint256"
        },
        {
          "name": "photoState",
          "type": "uint8"
        },
        {
          "name": "editorID",
          "type": "address"
        },
        {
          "name": "customerID",
          "type": "address"
        }
      ],
      "payable": false,
      "stateMutability": "view",
      "type": "function",
      "signature": "0x735f37e4"
    }
  ],
  "bytecode": "0x6080604052336000806101000a81548173ffffffffffffffffffffffffffffffffffffffff021916908373ffffffffffffffffffffffffffffffffffffffff1602179055506001808190555061262f8061005a6000396000f3fe6080604052600436106100a4576000357c0100000000000000000000000000000000000000000000000000000000900463ffffffff1680630b72e6a7146100a95780633ca46c34146100e457806341c0e1b51461026d578063562fd37114610284578063735f37e4146103a5578063aab54d68146104e2578063b2bf58261461051d578063bc50afc81461054b578063c2565c6c14610586578063ec083ce7146105cb575b600080fd5b3480156100b557600080fd5b506100e2600480360360208110156100cc57600080fd5b8101908080359060200190929190505050610606565b005b3480156100f057600080fd5b5061026b6004803603608081101561010757600080fd5b8101908080359060200190929190803573ffffffffffffffffffffffffffffffffffffffff1690602001909291908035906020019064010000000081111561014e57600080fd5b82018360208201111561016057600080fd5b8035906020019184600183028401116401000000008311171561018257600080fd5b91908080601f016020809104026020016040519081016040528093929190818152602001838380828437600081840152601f19601f820116905080830192505050505050509192919290803590602001906401000000008111156101e557600080fd5b8201836020820111156101f757600080fd5b8035906020019184600183028401116401000000008311171561021957600080fd5b91908080601f016020809104026020016040519081016040528093929190818152602001838380828437600081840152601f19601f8201169050808301925050505050505091929192905050506109f1565b005b34801561027957600080fd5b50610282610c91565b005b34801561029057600080fd5b506102bd600480360360208110156102a757600080fd5b8101908080359060200190929190505050610d22565b604051808581526020018473ffffffffffffffffffffffffffffffffffffffff1673ffffffffffffffffffffffffffffffffffffffff1681526020018373ffffffffffffffffffffffffffffffffffffffff1673ffffffffffffffffffffffffffffffffffffffff16815260200180602001828103825283818151815260200191508051906020019080838360005b8381101561036757808201518184015260208101905061034c565b50505050905090810190601f1680156103945780820380516001836020036101000a031916815260200191505b509550505050505060405180910390f35b3480156103b157600080fd5b506103de600480360360208110156103c857600080fd5b8101908080359060200190929190505050610e78565b60405180878152602001806020018681526020018560068111156103fe57fe5b60ff1681526020018473ffffffffffffffffffffffffffffffffffffffff1673ffffffffffffffffffffffffffffffffffffffff1681526020018373ffffffffffffffffffffffffffffffffffffffff1673ffffffffffffffffffffffffffffffffffffffff168152602001828103825287818151815260200191508051906020019080838360005b838110156104a2578082015181840152602081019050610487565b50505050905090810190601f1680156104cf5780820380516001836020036101000a031916815260200191505b5097505050505050505060405180910390f35b3480156104ee57600080fd5b5061051b6004803603602081101561050557600080fd5b8101908080359060200190929190505050611018565b005b6105496004803603602081101561053357600080fd5b81019080803590602001909291905050506113c7565b005b34801561055757600080fd5b506105846004803603602081101561056e57600080fd5b81019080803590602001909291905050506118e6565b005b34801561059257600080fd5b506105c9600480360360408110156105a957600080fd5b810190808035906020019092919080359060200190929190505050611d09565b005b3480156105d757600080fd5b50610604600480360360208110156105ee57600080fd5b81019080803590602001909291905050506120ff565b005b806003600681111561061457fe5b6002600083815260200190815260200160002060060160009054906101000a900460ff16600681111561064357fe5b14151561064f57600080fd5b338073ffffffffffffffffffffffffffffffffffffffff163373ffffffffffffffffffffffffffffffffffffffff1614151561068a57600080fd5b6106926124ae565b600260008581526020019081526020016000206101206040519081016040529081600082015481526020016001820160009054906101000a900473ffffffffffffffffffffffffffffffffffffffff1673ffffffffffffffffffffffffffffffffffffffff1673ffffffffffffffffffffffffffffffffffffffff1681526020016002820160009054906101000a900473ffffffffffffffffffffffffffffffffffffffff1673ffffffffffffffffffffffffffffffffffffffff1673ffffffffffffffffffffffffffffffffffffffff168152602001600382018054600181600116156101000203166002900480601f0160208091040260200160405190810160405280929190818152602001828054600181600116156101000203166002900480156108015780601f106107d657610100808354040283529160200191610801565b820191906000526020600020905b8154815290600101906020018083116107e457829003601f168201915b50505050508152602001600482018054600181600116156101000203166002900480601f0160208091040260200160405190810160405280929190818152602001828054600181600116156101000203166002900480156108a35780601f10610878576101008083540402835291602001916108a3565b820191906000526020600020905b81548152906001019060200180831161088657829003601f168201915b50505050508152602001600582015481526020016006820160009054906101000a900460ff1660068111156108d457fe5b60068111156108df57fe5b81526020016006820160019054906101000a900473ffffffffffffffffffffffffffffffffffffffff1673ffffffffffffffffffffffffffffffffffffffff1673ffffffffffffffffffffffffffffffffffffffff1681526020016007820160009054906101000a900473ffffffffffffffffffffffffffffffffffffffff1673ffffffffffffffffffffffffffffffffffffffff1673ffffffffffffffffffffffffffffffffffffffff1681525050905060048160c0019060068111156109a357fe5b908160068111156109b057fe5b815250507fff9eb9d26c4f039c77fb69f72cdcd62f2942afe4d95c7b00919c9b6a6bf003f1846040518082815260200191505060405180910390a150505050565b6109f96124ae565b8481600001818152505033816020019073ffffffffffffffffffffffffffffffffffffffff16908173ffffffffffffffffffffffffffffffffffffffff168152505083816040019073ffffffffffffffffffffffffffffffffffffffff16908173ffffffffffffffffffffffffffffffffffffffff168152505082816060018190525081816080018190525060008160c001906006811115610a9757fe5b90816006811115610aa457fe5b8152505080600260008781526020019081526020016000206000820151816000015560208201518160010160006101000a81548173ffffffffffffffffffffffffffffffffffffffff021916908373ffffffffffffffffffffffffffffffffffffffff16021790555060408201518160020160006101000a81548173ffffffffffffffffffffffffffffffffffffffff021916908373ffffffffffffffffffffffffffffffffffffffff1602179055506060820151816003019080519060200190610b7092919061255e565b506080820151816004019080519060200190610b8d92919061255e565b5060a0820151816005015560c08201518160060160006101000a81548160ff02191690836006811115610bbc57fe5b021790555060e08201518160060160016101000a81548173ffffffffffffffffffffffffffffffffffffffff021916908373ffffffffffffffffffffffffffffffffffffffff1602179055506101008201518160070160006101000a81548173ffffffffffffffffffffffffffffffffffffffff021916908373ffffffffffffffffffffffffffffffffffffffff1602179055509050507f2232bfb928a91ae09ca32a5378b10764ad8bcae19b82480a1f934d553117aca8856040518082815260200191505060405180910390a15050505050565b6000809054906101000a900473ffffffffffffffffffffffffffffffffffffffff1673ffffffffffffffffffffffffffffffffffffffff163373ffffffffffffffffffffffffffffffffffffffff161415610d20576000809054906101000a900473ffffffffffffffffffffffffffffffffffffffff1673ffffffffffffffffffffffffffffffffffffffff16ff5b565b60008060006060600260008681526020019081526020016000206000015493506002600086815260200190815260200160002060010160009054906101000a900473ffffffffffffffffffffffffffffffffffffffff1692506002600086815260200190815260200160002060020160009054906101000a900473ffffffffffffffffffffffffffffffffffffffff169150600260008681526020019081526020016000206003018054600181600116156101000203166002900480601f016020809104026020016040519081016040528092919081815260200182805460018160011615610100020316600290048015610e5e5780601f10610e3357610100808354040283529160200191610e5e565b820191906000526020600020905b815481529060010190602001808311610e4157829003601f168201915b505050505090508383838393509350935093509193509193565b6000606060008060008060026000888152602001908152602001600020600001549550600260008881526020019081526020016000206004018054600181600116156101000203166002900480601f016020809104026020016040519081016040528092919081815260200182805460018160011615610100020316600290048015610f455780601f10610f1a57610100808354040283529160200191610f45565b820191906000526020600020905b815481529060010190602001808311610f2857829003601f168201915b50505050509450600260008881526020019081526020016000206005015493506002600088815260200190815260200160002060060160009054906101000a900460ff1692506002600088815260200190815260200160002060060160019054906101000a900473ffffffffffffffffffffffffffffffffffffffff1691506002600088815260200190815260200160002060070160009054906101000a900473ffffffffffffffffffffffffffffffffffffffff16905085858585858595509550955095509550955091939550919395565b806004600681111561102657fe5b6002600083815260200190815260200160002060060160009054906101000a900460ff16600681111561105557fe5b14151561106157600080fd5b6110696124ae565b600260008481526020019081526020016000206101206040519081016040529081600082015481526020016001820160009054906101000a900473ffffffffffffffffffffffffffffffffffffffff1673ffffffffffffffffffffffffffffffffffffffff1673ffffffffffffffffffffffffffffffffffffffff1681526020016002820160009054906101000a900473ffffffffffffffffffffffffffffffffffffffff1673ffffffffffffffffffffffffffffffffffffffff1673ffffffffffffffffffffffffffffffffffffffff168152602001600382018054600181600116156101000203166002900480601f0160208091040260200160405190810160405280929190818152602001828054600181600116156101000203166002900480156111d85780601f106111ad576101008083540402835291602001916111d8565b820191906000526020600020905b8154815290600101906020018083116111bb57829003601f168201915b50505050508152602001600482018054600181600116156101000203166002900480601f01602080910402602001604051908101604052809291908181526020018280546001816001161561010002031660029004801561127a5780601f1061124f5761010080835404028352916020019161127a565b820191906000526020600020905b81548152906001019060200180831161125d57829003601f168201915b50505050508152602001600582015481526020016006820160009054906101000a900460ff1660068111156112ab57fe5b60068111156112b657fe5b81526020016006820160019054906101000a900473ffffffffffffffffffffffffffffffffffffffff1673ffffffffffffffffffffffffffffffffffffffff1673ffffffffffffffffffffffffffffffffffffffff1681526020016007820160009054906101000a900473ffffffffffffffffffffffffffffffffffffffff1673ffffffffffffffffffffffffffffffffffffffff1673ffffffffffffffffffffffffffffffffffffffff1681525050905060058160c00190600681111561137a57fe5b9081600681111561138757fe5b815250507fa8142743f8f70a4c26f3691cf4ed59718381fb2f18070ec52be1f1022d855557836040518082815260200191505060405180910390a1505050565b80600260068111156113d557fe5b6002600083815260200190815260200160002060060160009054906101000a900460ff16600681111561140457fe5b14151561141057600080fd5b3480341015151561142057600080fd5b826114296124ae565b600260008681526020019081526020016000206101206040519081016040529081600082015481526020016001820160009054906101000a900473ffffffffffffffffffffffffffffffffffffffff1673ffffffffffffffffffffffffffffffffffffffff1673ffffffffffffffffffffffffffffffffffffffff1681526020016002820160009054906101000a900473ffffffffffffffffffffffffffffffffffffffff1673ffffffffffffffffffffffffffffffffffffffff1673ffffffffffffffffffffffffffffffffffffffff168152602001600382018054600181600116156101000203166002900480601f0160208091040260200160405190810160405280929190818152602001828054600181600116156101000203166002900480156115985780601f1061156d57610100808354040283529160200191611598565b820191906000526020600020905b81548152906001019060200180831161157b57829003601f168201915b50505050508152602001600482018054600181600116156101000203166002900480601f01602080910402602001604051908101604052809291908181526020018280546001816001161561010002031660029004801561163a5780601f1061160f5761010080835404028352916020019161163a565b820191906000526020600020905b81548152906001019060200180831161161d57829003601f168201915b50505050508152602001600582015481526020016006820160009054906101000a900460ff16600681111561166b57fe5b600681111561167657fe5b81526020016006820160019054906101000a900473ffffffffffffffffffffffffffffffffffffffff1673ffffffffffffffffffffffffffffffffffffffff1673ffffffffffffffffffffffffffffffffffffffff1681526020016007820160009054906101000a900473ffffffffffffffffffffffffffffffffffffffff1673ffffffffffffffffffffffffffffffffffffffff1673ffffffffffffffffffffffffffffffffffffffff168152505090503381610100019073ffffffffffffffffffffffffffffffffffffffff16908173ffffffffffffffffffffffffffffffffffffffff168152505060038160c00190600681111561177357fe5b9081600681111561178057fe5b8152505033816020019073ffffffffffffffffffffffffffffffffffffffff16908173ffffffffffffffffffffffffffffffffffffffff16815250503373ffffffffffffffffffffffffffffffffffffffff166108fc8260a001519081150290604051600060405180830381858888f19350505050158015611806573d6000803e3d6000fd5b507f92f64ca637d023f354075a4be751b169c1a8a9ccb6d33cdd0cb3520543995727856040518082815260200191505060405180910390a150600060026000838152602001908152602001600020600501549050600081340390506002600084815260200190815260200160002060070160009054906101000a900473ffffffffffffffffffffffffffffffffffffffff1673ffffffffffffffffffffffffffffffffffffffff166108fc829081150290604051600060405180830381858888f193505050501580156118dd573d6000803e3d6000fd5b50505050505050565b80600060068111156118f457fe5b6002600083815260200190815260200160002060060160009054906101000a900460ff16600681111561192357fe5b14151561192f57600080fd5b338073ffffffffffffffffffffffffffffffffffffffff163373ffffffffffffffffffffffffffffffffffffffff1614151561196a57600080fd5b6119726124ae565b600260008581526020019081526020016000206101206040519081016040529081600082015481526020016001820160009054906101000a900473ffffffffffffffffffffffffffffffffffffffff1673ffffffffffffffffffffffffffffffffffffffff1673ffffffffffffffffffffffffffffffffffffffff1681526020016002820160009054906101000a900473ffffffffffffffffffffffffffffffffffffffff1673ffffffffffffffffffffffffffffffffffffffff1673ffffffffffffffffffffffffffffffffffffffff168152602001600382018054600181600116156101000203166002900480601f016020809104026020016040519081016040528092919081815260200182805460018160011615610100020316600290048015611ae15780601f10611ab657610100808354040283529160200191611ae1565b820191906000526020600020905b815481529060010190602001808311611ac457829003601f168201915b50505050508152602001600482018054600181600116156101000203166002900480601f016020809104026020016040519081016040528092919081815260200182805460018160011615610100020316600290048015611b835780601f10611b5857610100808354040283529160200191611b83565b820191906000526020600020905b815481529060010190602001808311611b6657829003601f168201915b50505050508152602001600582015481526020016006820160009054906101000a900460ff166006811115611bb457fe5b6006811115611bbf57fe5b81526020016006820160019054906101000a900473ffffffffffffffffffffffffffffffffffffffff1673ffffffffffffffffffffffffffffffffffffffff1673ffffffffffffffffffffffffffffffffffffffff1681526020016007820160009054906101000a900473ffffffffffffffffffffffffffffffffffffffff1673ffffffffffffffffffffffffffffffffffffffff1673ffffffffffffffffffffffffffffffffffffffff16815250509050338160e0019073ffffffffffffffffffffffffffffffffffffffff16908173ffffffffffffffffffffffffffffffffffffffff168152505060018160c001906006811115611cbb57fe5b90816006811115611cc857fe5b815250507f81b098879d8f20470d14a7342a3cfd5c340ba750df78cb8f666c16ea0c002e59846040518082815260200191505060405180910390a150505050565b8160016006811115611d1757fe5b6002600083815260200190815260200160002060060160009054906101000a900460ff166006811115611d4657fe5b141515611d5257600080fd5b338073ffffffffffffffffffffffffffffffffffffffff163373ffffffffffffffffffffffffffffffffffffffff16141515611d8d57600080fd5b611d956124ae565b600260008681526020019081526020016000206101206040519081016040529081600082015481526020016001820160009054906101000a900473ffffffffffffffffffffffffffffffffffffffff1673ffffffffffffffffffffffffffffffffffffffff1673ffffffffffffffffffffffffffffffffffffffff1681526020016002820160009054906101000a900473ffffffffffffffffffffffffffffffffffffffff1673ffffffffffffffffffffffffffffffffffffffff1673ffffffffffffffffffffffffffffffffffffffff168152602001600382018054600181600116156101000203166002900480601f016020809104026020016040519081016040528092919081815260200182805460018160011615610100020316600290048015611f045780601f10611ed957610100808354040283529160200191611f04565b820191906000526020600020905b815481529060010190602001808311611ee757829003601f168201915b50505050508152602001600482018054600181600116156101000203166002900480601f016020809104026020016040519081016040528092919081815260200182805460018160011615610100020316600290048015611fa65780601f10611f7b57610100808354040283529160200191611fa6565b820191906000526020600020905b815481529060010190602001808311611f8957829003601f168201915b50505050508152602001600582015481526020016006820160009054906101000a900460ff166006811115611fd757fe5b6006811115611fe257fe5b81526020016006820160019054906101000a900473ffffffffffffffffffffffffffffffffffffffff1673ffffffffffffffffffffffffffffffffffffffff1673ffffffffffffffffffffffffffffffffffffffff1681526020016007820160009054906101000a900473ffffffffffffffffffffffffffffffffffffffff1673ffffffffffffffffffffffffffffffffffffffff1673ffffffffffffffffffffffffffffffffffffffff1681525050905060028160c0019060068111156120a657fe5b908160068111156120b357fe5b81525050838160a00181815250507fa96ae0fc3224ebd79eebfe54bd130cc9cb94416cddd1f2386115e00b72532468856040518082815260200191505060405180910390a15050505050565b806005600681111561210d57fe5b6002600083815260200190815260200160002060060160009054906101000a900460ff16600681111561213c57fe5b14151561214857600080fd5b6121506124ae565b600260008481526020019081526020016000206101206040519081016040529081600082015481526020016001820160009054906101000a900473ffffffffffffffffffffffffffffffffffffffff1673ffffffffffffffffffffffffffffffffffffffff1673ffffffffffffffffffffffffffffffffffffffff1681526020016002820160009054906101000a900473ffffffffffffffffffffffffffffffffffffffff1673ffffffffffffffffffffffffffffffffffffffff1673ffffffffffffffffffffffffffffffffffffffff168152602001600382018054600181600116156101000203166002900480601f0160208091040260200160405190810160405280929190818152602001828054600181600116156101000203166002900480156122bf5780601f10612294576101008083540402835291602001916122bf565b820191906000526020600020905b8154815290600101906020018083116122a257829003601f168201915b50505050508152602001600482018054600181600116156101000203166002900480601f0160208091040260200160405190810160405280929190818152602001828054600181600116156101000203166002900480156123615780601f1061233657610100808354040283529160200191612361565b820191906000526020600020905b81548152906001019060200180831161234457829003601f168201915b50505050508152602001600582015481526020016006820160009054906101000a900460ff16600681111561239257fe5b600681111561239d57fe5b81526020016006820160019054906101000a900473ffffffffffffffffffffffffffffffffffffffff1673ffffffffffffffffffffffffffffffffffffffff1673ffffffffffffffffffffffffffffffffffffffff1681526020016007820160009054906101000a900473ffffffffffffffffffffffffffffffffffffffff1673ffffffffffffffffffffffffffffffffffffffff1673ffffffffffffffffffffffffffffffffffffffff1681525050905060068160c00190600681111561246157fe5b9081600681111561246e57fe5b815250507f653d56639fee6b566a5c804764e9689de38645f0b733df89a36a1b7b42173dd8836040518082815260200191505060405180910390a1505050565b6101206040519081016040528060008152602001600073ffffffffffffffffffffffffffffffffffffffff168152602001600073ffffffffffffffffffffffffffffffffffffffff1681526020016060815260200160608152602001600081526020016000600681111561251e57fe5b8152602001600073ffffffffffffffffffffffffffffffffffffffff168152602001600073ffffffffffffffffffffffffffffffffffffffff1681525090565b828054600181600116156101000203166002900490600052602060002090601f016020900481019282601f1061259f57805160ff19168380011785556125cd565b828001600101855582156125cd579182015b828111156125cc5782518255916020019190600101906125b1565b5b5090506125da91906125de565b5090565b61260091905b808211156125fc5760008160009055506001016125e4565b5090565b9056fea165627a7a723058203f679fa3c78ce4a6708e84c5a8ed36e4e30ae779523d9bbe8a920a92565e088a0029",
  "source": "pragma solidity ^0.5.0;\r\n// Define a contract 'Supplychain'\r\ncontract SupplyChain{\r\n    // Define 'owner'\r\n    address payable owner; \r\n    // Define a variable called 'upc' for Universal Product Code (UPC)\r\n    uint upc;\r\n    // Define a public mapping 'photos' that maps the UPC to a Photo.\r\n    mapping (uint => Photo) photos;\r\n    // Define a public mapping 'photosHistory' that maps the UPC to an array of TxHash, \r\n    // that track its journey through the supply chain -- to be sent from DApp.\r\n    mapping (uint => string[]) photosHistory; \r\n    // Define enum 'State' with the following values:\r\n    enum State{ \r\n        Taken,      // 0 \r\n        Proccessed, // 1\r\n        ForSale,    // 2\r\n        Sold,       // 3\r\n        Sent,       // 4 \r\n        Received,   // 5\r\n        Purchased   // 6\r\n    }\r\n    State constant defaultState = State.Taken;\r\n    // Define a struct 'Photo' with the following fields:\r\n    struct Photo {\r\n        uint    upc; // Universal Product Code (UPC), generated by the Photographer, goes on the package, can be verified by the Customer\r\n        address ownerID; // Metamask-Ethereum address of the current owner as the product moves through 7 stages\r\n        address originPhotographerID; // Metamask-Ethereum address of the Photographer\r\n        string  originPhotographerName; // Photographer Name\r\n        string  photoNotes; // photo Notes\r\n        uint    photoPrice; // photo Price\r\n        State   photoState;  // photo State as represented in the enum above\r\n        address editorID;  // Metamask-Ethereum address of the Editor\r\n        address payable customerID; // Metamask-Ethereum address of the Customer\r\n    }\r\n    // Define 7 events with the same 7 state values and accept 'upc' as input argument\r\n    event Taken(uint upc);\r\n    event Proccessed(uint upc);\r\n    event ForSale(uint upc);\r\n    event Sold(uint upc);\r\n    event Sent(uint upc);\r\n    event Received(uint upc);\r\n    event Purchased(uint upc);\r\n    // Define a modifer that checks to see if msg.sender == owner of the contract\r\n    modifier onlyOwner(){\r\n        require(msg.sender == owner);\r\n        _;\r\n    }\r\n    // Define a modifer that verifies the Caller\r\n    modifier verifyCaller (address _address) {\r\n        require(msg.sender == _address); \r\n        _;\r\n    }\r\n    // Define a modifier that checks if the paid amount is sufficient to cover the price\r\n    modifier paidEnough(uint _price) { \r\n        require(msg.value >= _price); \r\n        _;\r\n    } \r\n    // Define a modifier that checks the price and refunds the remaining balance\r\n    modifier checkValue(uint _upc) {\r\n        _;\r\n        uint _price = photos[_upc].photoPrice;\r\n        uint amountToReturn = msg.value - _price;\r\n        photos[_upc].customerID.transfer(amountToReturn);\r\n    }\r\n    // Define a modifier that checks if an photo.state of a upc is Taken\r\n    modifier taken(uint _upc) {\r\n        require(photos[_upc].photoState == State.Taken);\r\n        _;\r\n    }\r\n    // Define a modifier that checks if an photo.state of a upc is Processed\r\n    modifier processed(uint _upc) {\r\n        require(photos[_upc].photoState == State.Proccessed);\r\n        _;\r\n    }\r\n    // Define a modifier that checks if an photo.state of a upc is ForSale\r\n    modifier forSale(uint _upc) {\r\n        require(photos[_upc].photoState == State.ForSale);\r\n        _;\r\n    }\r\n    // Define a modifier that checks if an photo.state of a upc is Sold\r\n    modifier sold(uint _upc) {\r\n        require(photos[_upc].photoState == State.Sold);\r\n        _;\r\n    }\r\n    // Define a modifier that checks if an photo.state of a upc is Sent\r\n    modifier sent(uint _upc) {\r\n        require(photos[_upc].photoState == State.Sent);\r\n        _;\r\n    }\r\n    // Define a modifier that checks if an photo.state of a upc is Received\r\n    modifier received(uint _upc) {\r\n        require(photos[_upc].photoState == State.Received);\r\n        _;\r\n    }\r\n    // Define a modifier that checks if an photo.state of a upc is Purchased\r\n    modifier purchased(uint _upc) {\r\n        require(photos[_upc].photoState == State.Purchased);\r\n        _;\r\n    }\r\n    // In the constructor set 'owner' to the address that instantiated the contract\r\n    // and set 'upc' to 1\r\n    constructor() public payable {\r\n        owner = msg.sender;\r\n        upc = 1;\r\n    }\r\n    // Define a function 'kill' if required\r\n    function kill() public {\r\n        if (msg.sender == owner) {\r\n        selfdestruct(owner);\r\n        }\r\n    }\r\n    // Define a function 'takePhoto' that allows a photographer to mark a photo 'Taken'\r\n    function takePhoto(uint _upc, address _originPhotographerID, string memory _originPhotographerName, string memory  _photoNotes) public \r\n    {\r\n        // Add the new item as part of Harvest\r\n        Photo memory newPhoto;\r\n        newPhoto.upc = _upc;\r\n        newPhoto.ownerID = msg.sender;\r\n        newPhoto.originPhotographerID = _originPhotographerID;\r\n        newPhoto.originPhotographerName = _originPhotographerName;\r\n        newPhoto.photoNotes = _photoNotes;\r\n        newPhoto.photoState = State.Taken;\r\n\r\n        photos[_upc] = newPhoto;\r\n\r\n        // Emit the appropriate event\r\n        emit Taken(_upc);\r\n        \r\n    }\r\n    // Define a function 'editPhoto' that allows an Editor to mark a photo 'Processed'\r\n    function editPhoto(uint _upc) public \r\n    // Call modifier to check if upc has passed previous supply chain stage\r\n    taken(_upc)\r\n    // Call modifier to verify caller of this function\r\n    verifyCaller (msg.sender)\r\n    {\r\n        // Update the appropriate fields\r\n        Photo memory photo;\r\n        photo = photos[_upc];\r\n        photo.editorID = msg.sender;\r\n        photo.photoState = State.Proccessed;\r\n        \r\n        // Emit the appropriate event\r\n        emit Proccessed(_upc);\r\n        \r\n    }\r\n    // Define a function 'addPhoto' that allows a photographer/ editor to mark a photo 'ForSale'\r\n    function addPhoto(uint _upc, uint _price) public \r\n    // Call modifier to check if upc has passed previous supply chain stage\r\n    processed(_upc)\r\n    // Call modifier to verify caller of this function\r\n    verifyCaller (msg.sender)\r\n    {\r\n        // Update the appropriate fields\r\n        Photo memory photo;\r\n        photo = photos[_upc];\r\n        photo.photoState = State.ForSale;\r\n        photo.photoPrice = _price;\r\n        // Emit the appropriate event\r\n        emit ForSale(_upc);\r\n        \r\n    }\r\n    // Define a function 'buyPhoto' that allows the customer to mark a photo 'Sold'\r\n    // Use the above defined modifiers to check if the item is available for sale, if the buyer has paid enough, \r\n    // and any excess ether sent is refunded back to the buyer\r\n    function buyPhoto(uint _upc) public payable \r\n        // Call modifier to check if upc has passed previous supply chain stage\r\n        forSale(_upc)\r\n        // Call modifer to check if buyer has paid enough\r\n        paidEnough(msg.value) \r\n        // Call modifer to send any excess ether back to buyer\r\n        checkValue(_upc)\r\n        {\r\n        \r\n        // Update the appropriate fields \r\n        Photo memory photo;\r\n        photo = photos[_upc];\r\n        //photo.ownerID = msg.sender;\r\n        photo.customerID = msg.sender;\r\n        photo.photoState = State.Sold;\r\n        photo.ownerID = msg.sender;\r\n        // Transfer money to photographer\r\n\r\n        msg.sender.transfer(photo.photoPrice);\r\n        \r\n        // emit the appropriate event\r\n        emit Sold(_upc);\r\n        \r\n    }\r\n    // Define a function 'sendPhoto' that allows the photographer/ editor to mark an item 'Sent'\r\n    // Use the above modifers to check if the photo is sold\r\n    function sendPhoto(uint _upc) public \r\n        // Call modifier to check if upc has passed previous supply chain stage\r\n        sold(_upc)\r\n        // Call modifier to verify caller of this function\r\n        verifyCaller(msg.sender)\r\n        {\r\n        // Update the appropriate fields\r\n        Photo memory photo;\r\n        photo = photos[_upc];\r\n        photo.photoState = State.Sent;\r\n        \r\n        // Emit the appropriate event\r\n        emit Sent(_upc);\r\n        \r\n    }\r\n    // Define a function 'receivePhoto' that allows the customer to mark a photo 'Received'\r\n    // Use the above modifiers to check if the photo is Sent\r\n    function receivePhoto(uint _upc) public \r\n        // Call modifier to check if upc has passed previous supply chain stage\r\n        sent(_upc)\r\n        // Access Control List enforced by calling Smart Contract / DApp\r\n        {\r\n        // Update the appropriate fields \r\n\r\n        Photo memory photo;\r\n        photo = photos[_upc];\r\n        photo.photoState = State.Received;\r\n        \r\n        \r\n        // Emit the appropriate event\r\n        emit Received(_upc);\r\n        \r\n    }\r\n    // Define a function 'purchasePhoto' that allows the customer to mark a photo 'Purchased'\r\n    // Use the above modifiers to check if the photo is received\r\n    function purchasePhoto(uint _upc) public \r\n        // Call modifier to check if upc has passed previous supply chain stage\r\n        received(_upc)\r\n        // Access Control List enforced by calling Smart Contract / DApp\r\n        {\r\n        // Update the appropriate fields \r\n        Photo memory photo;\r\n        photo = photos[_upc];\r\n        photo.photoState = State.Purchased;\r\n        \r\n        // Emit the appropriate event\r\n        emit Purchased(_upc);\r\n        \r\n    }\r\n    // Define a function 'fetchPhotoBufferOne' that fetches the data\r\n    function fetchPhotoBufferOne(uint _upc) public view returns \r\n    (uint photoUPC, address ownerID, address originPhotographerID, string memory originPhotographerName){\r\n    // Assign values \r\n    photoUPC                = photos[_upc].upc;\r\n    ownerID                 = photos[_upc].ownerID;\r\n    originPhotographerID    = photos[_upc].originPhotographerID;\r\n    originPhotographerName  = photos[_upc].originPhotographerName;\r\n       \r\n    return(photoUPC, ownerID, originPhotographerID, originPhotographerName);\r\n    }\r\n  // Define a function 'fetchPhotoBufferTwo' that fetches the data\r\n    function fetchPhotoBufferTwo(uint _upc) public view returns \r\n    (uint photoUPC, string memory photoNotes, uint photoPrice, State photoState, address editorID, address customerID){\r\n    // Assign values to the 8 parameters\r\n    photoUPC = photos[_upc].upc;\r\n    photoNotes = photos[_upc].photoNotes;\r\n    photoPrice = photos[_upc].photoPrice;\r\n    photoState = photos[_upc].photoState;\r\n    editorID = photos[_upc].editorID;\r\n    customerID = photos[_upc].customerID;\r\n        \r\n    return (photoUPC, photoNotes, photoPrice, photoState, editorID, customerID);\r\n    }\r\n\r\n}\r\n",
  "sourcePath": "C:/Users/Hadeel/Desktop/Architect a Blockchain Supply Chain Solution/Part B/Project-6b/Project-6b/project-6/contracts/photographbase/SupplyChain.sol",
  "compiler": {
    "name": "solc",
    "version": "0.5.0+commit.1d4f565a.Emscripten.clang"
  },
  "schemaVersion": "3.0.1",
  "updatedAt": "2019-03-14T21:04:17.280Z",
  "devdoc": {
    "methods": {}
  },
  "userdoc": {
    "methods": {}
  }
}